:100000000C942A000C9447000C9447000C94470071
:100010000C9447000C9447000C9447000C94470044
:100020000C9447000C9447000C9447000C94470034
:100030000C9447000C9447000C9447000C94470024
:100040000C9447000C9447000C9447000C94470014
:100050000C94470011241FBECFE5D8E0DEBFCDBF12
:1000600010E0A0E6B0E0EAECF0E102C005900D92ED
:10007000AC39B107D9F721E0ACE9B0E001C01D927D
:10008000A03EB207E1F70E94E1050C9463080C94CE
:10009000000041E066E082E00C943D0241E066E051
:1000A00082E00E94A80140E066E082E00C943D02FC
:1000B00081110C94490040E066E082E00C943D021E
:1000C0000E9449002FEF81EE94E021508040904043
:1000D000E1F700C0000080E00C9458000E94490045
:1000E0002FEF8AE693E0215080409040E1F700C076
:1000F000000080E00E9458002FE785EB91E021503E
:1001000080409040E1F700C000000E9449002FEFBE
:100110008AE693E0215080409040E1F700C0000063
:1001200080E00C945800982F9D7F9D3259F096EDF9
:10013000980F923038F021E090E0843209F020E00E
:10014000822F089581E090E0089584528C3048F425
:10015000E82FF0E0E159FF4F8081082E000C990B49
:10016000089580E090E008950F931F93CF93DF935D
:10017000182F062F0E94A500EC01802F0E94A500D9
:10018000AC01C817D90731F481E090E0143249F48A
:1001900080E007C021E090E04C175D070CF020E004
:1001A000822FDF91CF911F910F9108952F923F924F
:1001B0004F925F926F927F928F929F92AF92BF9277
:1001C000CF92DF92EF92FF920F931F93CF93DF9323
:1001D000CDB7DEB7C055D1090FB6F894DEBF0FBE5C
:1001E000CDBF5C0180E590E00E941C076C01F50129
:1001F00001900020E9F731972F014A185B0835017B
:100200000FEF1FEFE12CF12CC3018A199B09841514
:1002100095050CF06DC0F30131903F01F0E23F16FF
:1002200019F02CE2321209C0F601EE0DFF1D80E23A
:100230008083F70131967F01E7CF832D0E949300E1
:10024000892B01F146018E0C9F1C7401EC18FD08EE
:100250000F3FFFEF1F0729F1E1E0F0E0EC0FFD1F7A
:10026000E00FF11F208028E22216D9F0632D822DA5
:100270000E94B400892BA9F001501109F4012192C8
:100280004F01E3CF80ED830D8A3040F4F601EE0D8F
:10029000FF1D3082C70101967C01B6CF98E239126A
:1002A0000AC00F5F1F4FE1E0F0E0EC0FFD1FE00F11
:1002B000F11F3082A9CFE9E23E12A6CFF601EE0D82
:1002C000FF1D7F01EC18FD08C80101970F3F2FEFBC
:1002D000120761F0A1E0B0E0AC0FBD1FA00FB11F8D
:1002E0002C91283219F08C012193EBCF8C018CCF0B
:1002F000CE010196F8013196E80FF91FD601AE0D37
:10030000BF1DE817F90719F022912D93FACF0C0DB4
:100310001D1DF801EE0DFF1D1182C601C05BDF4FF0
:100320000FB6F894DEBF0FBECDBFDF91CF911F9106
:100330000F91FF90EF90DF90CF90BF90AF909F9084
:100340008F907F906F905F904F903F902F90089587
:10035000442379F1413009F05FC0813079F028F011
:100360008230A9F08330E1F008952AB381E090E073
:1003700001C0880F6A95EAF7822B2CC027B381E071
:1003800090E001C0880F6A95EAF7822B2EC024B353
:1003900081E090E001C0880F6A95EAF7822B30C0B7
:1003A00021B381E090E001C0880F6A95EAF7822BC3
:1003B00032C0813089F028F08230C9F0833011F1E9
:1003C00008952AB381E090E001C0880F6A95EAF7AA
:1003D000809582238ABB089527B381E090E001C015
:1003E000880F6A95EAF78095822387BB089524B326
:1003F00081E090E001C0880F6A95EAF7809582233A
:1004000084BB089521B381E090E001C0880F6A9514
:10041000EAF78095822381BB0895813081F028F02E
:100420008230B9F08330F9F008952BB381E090E089
:1004300001C0880F6A95EAF7822B8BBB089528B319
:1004400081E090E001C0880F6A95EAF7822B88BBB3
:10045000089525B381E090E001C0880F6A95EAF71E
:10046000822B85BB089522B381E090E001C0880F04
:100470006A95EAF7822B82BB0895442379F14130D3
:1004800009F05FC0813079F028F08230A9F0833024
:10049000E1F008952BB381E090E001C0880F6A95E8
:1004A000EAF7822B2CC028B381E090E001C0880FCE
:1004B0006A95EAF7822B2EC025B381E090E001C057
:1004C000880F6A95EAF7822B30C022B381E090E072
:1004D00001C0880F6A95EAF7822B32C0813089F01B
:1004E00028F08230C9F0833011F108952BB381E0F8
:1004F00090E001C0880F6A95EAF7809582238BBB54
:10050000089528B381E090E001C0880F6A95EAF76A
:100510008095822388BB089525B381E090E001C0D7
:10052000880F6A95EAF78095822385BB089522B3E8
:1005300081E090E001C0880F6A95EAF780958223F8
:1005400082BB0895FA01813041F028F0823039F001
:10055000833039F0089589B305C086B303C083B3EF
:1005600001C080B390E002C0959587956A95E2F747
:1005700081708083089541E067E083E00E94A801D4
:1005800041E066E083E00E94A80141E065E083E08D
:100590000E94A80141E063E083E00E94A80140E0DE
:1005A00065E082E00E94A80140E064E082E00E94F1
:1005B000A80140E063E082E00E94A80140E062E020
:1005C00082E00E94A80165E082E00E940D0264E0E2
:1005D00082E00E940D0263E082E00E940D0262E070
:1005E00082E00E940D0241E067E083E00E943D024C
:1005F00041E066E083E00E943D0241E065E083E087
:100600000E943D0241E063E083E00C943D02AF9222
:10061000BF92CF92DF92EF92FF920F931F93CF93EF
:10062000DF931F92CDB7DEB71982C12CD12CA12C3C
:10063000B12C17E01430E9F1133011F4AA24A3947B
:1006400040E0612F83E00E943D02760127E0E21A3C
:10065000F108C7018A199109FC01E558FF4F7F0194
:1006600005E0AE014F5F5F4F602F82E00E94A20263
:100670008981811113C0F701B7808981811108C078
:10068000AE014F5F5F4F602F82E00E94A202F5CF64
:100690008FE39CE90197F1F700C00000015094E05E
:1006A000E90EF11C0130E9F641E0612F83E00E9480
:1006B0003D021150EFEFCE1ADE0A123009F0BACF28
:1006C0008B2D0F90DF91CF911F910F91FF90EF90A5
:1006D000DF90CF90BF90AF900895CF93C82F40E0A8
:1006E00063E080E00E943D0240E062E080E00E9422
:1006F0003D028C2F82958F70982F97708C2F869546
:10070000869586958071892B88BB41E062E080E008
:100710000E943D0285E08A95F1F7000040E062E02A
:1007200080E00E943D0295E09A95F1F700008C2F41
:10073000880F8071C770C82BC8BB41E062E080E0C1
:100740000E943D0285E08A95F1F7000040E062E0FA
:1007500080E00E943D0295E09A95F1F7000087EC59
:1007600090E00197F1F700C00000CF910895CF937A
:10077000C82F41E063E080E00E943D0240E062E07B
:1007800080E00E943D028C2F82958F70982F977089
:100790008C2F8695869586958071892B88BB41E044
:1007A00062E080E00E943D0285E08A95F1F700005A
:1007B00040E062E080E00E943D0295E09A95F1F70A
:1007C00000008C2F880F8071C770C82BC8BB41E018
:1007D00062E080E00E943D0285E08A95F1F700002A
:1007E00040E062E080E00E943D0295E09A95F1F7DA
:1007F000000087EC90E00197F1F700C00000CF9176
:1008000008950F931F93CF93DF9300D000D0CDB7FF
:10081000DEB700916B0010916C0020916D0030915B
:100820006E0009831A832B833C83FE01E80FF11DC0
:100830008181860F0F900F900F900F90DF91CF91D5
:100840001F910F910C946D03CF93DF93EC0189916D
:10085000882319F00E94B703FACFDF91CF91089552
:1008600081E00E946D038FE39CE90197F1F700C0DE
:1008700000000895811104C0809166008B7F05C03F
:10088000813029F4809166008460809366008091B5
:1008900066000C946D03811104C0809166008D7F09
:1008A00011C0813021F48091660082600BC08230DB
:1008B00021F480916600816005C0833029F4809125
:1008C00066008E7F80936600809166000C946D03B5
:1008D0008BB38C608BBB8AB38C608ABB88B3876117
:1008E00088BB87B3876187BB41E063E080E00E94FB
:1008F000A80141E062E080E00E94A80141E060E0E0
:1009000081E00E94A80141E061E081E00E94A8012D
:1009100041E062E081E00E94A80141E064E081E002
:100920000E94A80182E00E946D0388E20E946D038C
:1009300080E00E944B0483E00E944B0481E00E940F
:100940003A0486E00E946D030C9430044F925F924B
:100950006F927F928F929F92AF92BF92CF92DF92CF
:10096000EF92FF924B015C0197FF0BC08DE20E945A
:10097000B703B094A09490948094811C911CA11C06
:10098000B11C61E070E080E090E03AE0432E512C31
:10099000612C712C81149104A104B104A9F0AAE086
:1009A000B0E09B01AC010E94CC066B017C01C5014B
:1009B000B401A30192010E94AD066C0D7D1D8E1D38
:1009C0009F1D49015A01E6CF2AE0C22ED12CE12C0D
:1009D000F12C62307105810591056CF0A70196013B
:1009E0000E94AD0649015A0180E3860F0E94B703B9
:1009F000B401C501EECFFF90EF90DF90CF90BF9094
:100A0000AF909F908F907F906F905F904F900895E0
:100A1000CF93DF9300D0CDB7DEB79C014B32C1F04E
:100A200060F44A32F1F4629FC001639F900D729F9F
:100A3000900D11249A83898314C04D3261F04F3296
:100A400081F4CB01B9010E9499067A83698309C0B8
:100A5000260F371F04C0CB01821B930B9C013A83E6
:100A6000298389819A810F900F90DF91CF9108950A
:100A70008F929F92AF92BF92CF92DF92EF92FF92AE
:100A80000F931F93CF93DF93CDB7DEB72F970FB69A
:100A9000F894DEBF0FBECDBF0E94D6006C01FC01F2
:100AA00001900020E9F77C01CF0101975C0100E093
:100AB00010E0AE14BF0409F466C0F701808190ED28
:100AC000980F9A3098F44801FFEF8F1A9F0AE1E0DF
:100AD000F0E0EC0FFD1FE00FF11F8083F701808134
:100AE00090E0C0970E943A0684012FC0803279F4CA
:100AF0000115110551F1E1E0F0E0EC0FFD1FE00FF1
:100B0000F11F1082CE0101960E943D081AC090E0AC
:100B10000E949300892BC9F00E947E068C010E94DE
:100B200064060E947E064C010E946406F701408123
:100B30004F3219F40115110561F0B401C8010E948A
:100B400008050E943A0600E010E0FFEFEF1AFF0AE6
:100B5000B0CF8BE890E00E942404C6010E94B40745
:100B60002F960FB6F894DEBF0FBECDBFDF91CF91A9
:100B70001F910F91FF90EF90DF90CF90BF90AF90BB
:100B80009F908F9008950E947E06BC01990F880B5C
:100B9000990B0E94A604E1CF65E081E00E94010468
:100BA00081E990E00E9424042FEF87EA91E621502A
:100BB00080409040E1F700C000000E9430040C9497
:100BC0006000CF93DF93CDB7DEB7C055D1090FB624
:100BD000F894DEBF0FBECDBF0E944E000E946E0093
:100BE0000E9468040E94BB020E94CC0500E010E055
:100BF00080E2E82E0E940703F82E8823D9F30E9492
:100C0000600089819DE3F91689F093E6F9121AC014
:100C1000811103C00E94300425C0E1E0F0E0EC0F38
:100C2000FD1FE00FF11FE08280E218C08823D1F0A1
:100C30008DE30E94B703CE0101960E94380500E0C3
:100C400010E010C0811102C00E943004E1E0F0E029
:100C5000EC0FFD1FE00FF11FF0828F2D0E94B703F4
:100C60000F5F1F4FE1E0F0E0EC0FFD1FE00FF11F01
:100C70001082C0CF0F931F930091670010916800FE
:100C80002091690030916A000F341105210531056A
:100C9000C1F00F5F1F4F2F4F3F4F0093670010931E
:100CA00068002093690030936A009801220F331F77
:100CB000220F331FF901E456FF4F60837183828353
:100CC00093831F910F910895809167009091680020
:100CD000A0916900B0916A008F3F2FEF9207A207A1
:100CE000B20759F00197A109B10980936700909369
:100CF0006800A0936900B0936A000895809167002E
:100D000090916800A0916900B0916A008F3F2FEF29
:100D10009207A207B20761F0880F991F880F991FE9
:100D2000FC01E456FF4F60817181828193810895B7
:100D3000089597FB072E16F4009407D077FD09D08D
:100D40000E94D70607FC05D03EF4909581959F4FF1
:100D50000895709561957F4F0895052E97FB1EF4B9
:100D600000940E94C40657FD07D00E94EB0607FCC2
:100D700003D04EF40C94C4065095409530952195BF
:100D80003F4F4F4F5F4F08959095809570956195B7
:100D90007F4F8F4F9F4F08950E940D07A59F900D85
:100DA000B49F900DA49F800D911D11240895AA1B3E
:100DB000BB1B51E107C0AA1FBB1FA617B70710F046
:100DC000A61BB70B881F991F5A95A9F78095909578
:100DD000BC01CD010895A1E21A2EAA1BBB1BFD0187
:100DE0000DC0AA1FBB1FEE1FFF1FA217B307E4070A
:100DF000F50720F0A21BB30BE40BF50B661F771F62
:100E0000881F991F1A9469F7609570958095909541
:100E10009B01AC01BD01CF010895A29FB001B39F1A
:100E2000C001A39F700D811D1124911DB29F700DF3
:100E3000811D1124911D08950F931F93CF93DF936C
:100E40008230910510F482E090E0E091DE01F091B3
:100E5000DF0120E030E0A0E0B0E0309719F1408100
:100E600051810281138148175907C8F084179507EB
:100E700069F4109731F012960C93129713961C9305
:100E800027C00093DE011093DF0122C02115310538
:100E900019F04217530718F49A01BD01EF01DF0161
:100EA000F801DBCF21153105F9F0281B390B24306F
:100EB000310580F48A819B816115710521F0FB0168
:100EC0009383828304C09093DF018093DE01FE014F
:100ED000329644C0FE01E20FF31F8193919322509A
:100EE0003109398328833AC02091DC013091DD013A
:100EF000232B41F420916200309163003093DD0197
:100F00002093DC01209160003091610021153105B2
:100F100041F42DB73EB74091640050916500241B09
:100F2000350BE091DC01F091DD01E217F307A0F44D
:100F30002E1B3F0B2817390778F0AC014E5F5F4F2F
:100F40002417350748F04E0F5F1F5093DD01409383
:100F5000DC018193919302C0E0E0F0E0CF01DF91EA
:100F6000CF911F910F910895CF93DF93009709F4CC
:100F700081C0FC01329713821282A091DE01B091F0
:100F8000DF01109781F420813181820F931F20911E
:100F9000DC013091DD012817390751F5F093DD01AF
:100FA000E093DC0167C0ED0120E030E0CE17DF0701
:100FB00040F44A815B819E0141155105F1F0EA013F
:100FC000F5CFD383C28340815181840F951FC81709
:100FD000D90759F488819981840F951F02969183CE
:100FE00080838A819B81938382832115310529F433
:100FF000F093DF01E093DE013DC0E901FB83EA836A
:1010000049915991C40FD51FEC17FD0761F48081F8
:101010009181840F951F0296E901998388838281CB
:1010200093819B838A83E0E0F0E012968D919C91FE
:101030001397009719F0FD01DC01F7CF8D919C917A
:1010400011979D012E5F3F4F820F931F2091DC016E
:101050003091DD012817390769F4309729F410928F
:10106000DF011092DE0102C013821282B093DD0113
:10107000A093DC01DF91CF910895FC018827992787
:10108000E89421912032E9F3293010F02E30C8F392
:101090002B3241F02D3239F4689404C00E945B0871
:1010A000820F911D219120532A30C0F31EF4909598
:1010B00081959F4F08957AE0979F902D879F802D6F
:0A10C000910D11240895F894FFCF5C
:1010CA000000E001200008FFFFFFFF80C094D40366
:1010DA0000000000000201000100023738392F34F5
:1010EA0035362A3132332D63303D2B4572726F7299
:0C10FA000043616C63756C61746F7200E0
:0400000300000B9856
:00000001FF
