:100000000C942A000C9447000C9447000C94470071
:100010000C9447000C9447000C9447000C94470044
:100020000C9447000C9447000C9447000C94470034
:100030000C9447000C9447000C9447000C94470024
:100040000C9447000C9447000C9447000C94470014
:100050000C94470011241FBECFE5D8E0DEBFCDBF12
:1000600010E0A0E6B0E0E0E3F6E002C005900D92FB
:10007000A237B107D9F720E0A2E7B0E001C01D9296
:10008000A237B207E1F70E94D8020C9416030C9431
:10009000000041E066E082E00C94EA0041E066E0A6
:1000A00082E00E94850040E066E082E00C94EA0075
:1000B00081110C94490040E066E082E00C94EA0073
:1000C0000E9449002FEF8AE693E021508040904043
:1000D000E1F700C0000080E00E9458002FE785EBA8
:1000E00091E0215080409040E1F700C000000E9464
:1000F00049002FEF8AE693E0215080409040E1F7DD
:1001000000C0000080E00C945800442379F1413095
:1001100009F05FC0813079F028F08230A9F0833097
:10012000E1F008952AB381E090E001C0880F6A955C
:10013000EAF7822B2CC027B381E090E001C0880F42
:100140006A95EAF7822B2EC024B381E090E001C0CB
:10015000880F6A95EAF7822B30C021B381E090E0E6
:1001600001C0880F6A95EAF7822B32C0813089F08E
:1001700028F08230C9F0833011F108952AB381E06C
:1001800090E001C0880F6A95EAF7809582238ABBC8
:10019000089527B381E090E001C0880F6A95EAF7DF
:1001A0008095822387BB089524B381E090E001C04D
:1001B000880F6A95EAF78095822384BB089521B35E
:1001C00081E090E001C0880F6A95EAF7809582236C
:1001D00081BB0895442379F1413009F05FC081303B
:1001E00079F028F08230A9F08330E1F008952BB344
:1001F00081E090E001C0880F6A95EAF7822B2CC05D
:1002000028B381E090E001C0880F6A95EAF7822B5D
:100210002EC025B381E090E001C0880F6A95EAF70F
:10022000822B30C022B381E090E001C0880F6A9534
:10023000EAF7822B32C0813089F028F08230C9F091
:10024000833011F108952BB381E090E001C0880F55
:100250006A95EAF7809582238BBB089528B381E0E5
:1002600090E001C0880F6A95EAF78095822388BBE9
:10027000089525B381E090E001C0880F6A95EAF700
:100280008095822385BB089522B381E090E001C070
:10029000880F6A95EAF78095822382BB0895FA0158
:1002A000813041F028F0823039F0833039F0089500
:1002B00089B305C086B303C083B301C080B390E0A7
:1002C00002C0959587956A95E2F7817080830895BD
:1002D000AF92BF92CF92DF92EF92FF920F931F9354
:1002E000CF93DF931F92CDB7DEB71982C12CD12CEB
:1002F000A12CB12C17E01430E9F1133011F4AA2429
:10030000A39440E0612F83E00E94EA00760127E099
:10031000E21AF108C7018A199109FC01EF59FF4F50
:100320007F0105E0AE014F5F5F4F602F82E00E94CA
:100330004F018981811113C0F701B7808981811133
:1003400008C0AE014F5F5F4F602F82E00E944F01F7
:10035000F5CF8FE39CE90197F1F700C00000015051
:1003600094E0E90EF11C0130E9F641E0612F83E0F1
:100370000E94EA001150EFEFCE1ADE0A123009F0A7
:10038000BACF8B2D0F90DF91CF911F910F91FF90DE
:10039000EF90DF90CF90BF90AF900895CF93C82F8C
:1003A00040E063E080E00E94EA0040E062E080E03C
:1003B0000E94EA008C2F82958F70982F97708C2F57
:1003C0008695869586958071892B88BB41E062E091
:1003D00080E00E94EA0085E08A95F1F7000040E0A5
:1003E00062E080E00E94EA0095E09A95F1F7000053
:1003F0008C2F880F8071C770C82BC8BB41E062E0AA
:1004000080E00E94EA0085E08A95F1F7000040E074
:1004100062E080E00E94EA0095E09A95F1F7000022
:1004200087EC90E00197F1F700C00000CF910895AC
:10043000CF93C82F41E063E080E00E94EA0040E0F3
:1004400062E080E00E94EA008C2F82958F70982FE6
:1004500097708C2F8695869586958071892B88BBA1
:1004600041E062E080E00E94EA0085E08A95F1F7D1
:10047000000040E062E080E00E94EA0095E09A958A
:10048000F1F700008C2F880F8071C770C82BC8BB94
:1004900041E062E080E00E94EA0085E08A95F1F7A1
:1004A000000040E062E080E00E94EA0095E09A955A
:1004B000F1F7000087EC90E00197F1F700C0000031
:1004C000CF91089581E00E94CE018FE39CE90197CE
:1004D000F1F700C000000895811104C08091600010
:1004E0008B7F05C0813029F4809160008460809307
:1004F0006000809160000C94CE01811104C0809155
:1005000060008D7F11C0813021F480916000826095
:100510000BC0823021F480916000816005C083307F
:1005200029F4809160008E7F80936000809160004C
:100530000C94CE018BB38C608BBB8AB38C608ABB6E
:1005400088B3876188BB87B3876187BB41E063E07D
:1005500080E00E94850041E062E080E00E9485002A
:1005600041E060E081E00E94850041E061E081E0DF
:100570000E94850041E062E081E00E94850041E048
:1005800064E081E00E94850082E00E94CE0188E262
:100590000E94CE0180E00E947D0283E00E947D02E5
:1005A00081E00E946C0286E00E94CE010C946202FF
:1005B000CF93DF93CDB7DEB76E970FB6F894DEBF5B
:1005C0000FBECDBF0E944E000E9460000E949A02A2
:1005D000CE0101966C018EE1F60111928A95E9F740
:1005E00000E010E00E946801F82E8823D9F3FDE3B3
:1005F0008F17A9F083E6F81203C00E9462020FC0B1
:100600008981811102C00E946202F601E00FF11F90
:10061000F0828F2D0E9418020F5F1F4F02C000E072
:1006200010E0F601E00FF11F1082DCCFF894FFCF4D
:10063000083738392F3435362A3132332D63303D7F
:020640002B008D
:00000001FF
