:100000000C942A000C943F000C943F000C943F0089
:100010000C943F000C943F000C943F000C943F0064
:100020000C943F000C943F000C943F000C943F0054
:100030000C943F000C943F000C943F000C943F0044
:100040000C943F000C943F000C943F000C943F0034
:100050000C943F0011241FBECFE5D8E0DEBFCDBF1A
:1000600010E0A0E6B0E0E6EAF2E002C005900D92F2
:10007000A036B107D9F70E944C010C9451010C94A1
:10008000000041E066E082E00E946A0040E066E035
:1000900082E00E94DB000895882331F041E066E0B1
:1000A00082E00E94DB00089540E066E082E00E946A
:1000B000DB00089581E00E944C002FEF84E39CE078
:1000C000215080409040E1F700C0000080E00E9495
:1000D0004C0008954423B9F1413009F06BC08130E0
:1000E00089F028F08230C9F0833011F108952AB3E5
:1000F00081E090E002C0880F991F6A95E2F7822B99
:100100008ABB089527B381E090E002C0880F991F51
:100110006A95E2F7822B87BB089524B381E090E0D3
:1001200002C0880F991F6A95E2F7822B84BB08955D
:1001300021B381E090E002C0880F991F6A95E2F731
:10014000822B81BB0895813091F028F08230D9F064
:10015000833029F108952AB381E090E002C0880F2E
:10016000991F6A95E2F7809582238ABB089527B389
:1001700081E090E002C0880F991F6A95E2F78095B0
:10018000822387BB089524B381E090E002C0880FEA
:10019000991F6A95E2F78095822384BB089521B365
:1001A00081E090E002C0880F991F6A95E2F7809580
:1001B000822381BB08954423B9F1413009F06BC01B
:1001C000813089F028F08230C9F0833011F1089530
:1001D0002BB381E090E002C0880F991F6A95E2F787
:1001E000822B8BBB089528B381E090E002C0880F7A
:1001F000991F6A95E2F7822B88BB089525B381E0A9
:1002000090E002C0880F991F6A95E2F7822B85BBA8
:10021000089522B381E090E002C0880F991F6A958B
:10022000E2F7822B82BB0895813091F028F0823072
:10023000D9F0833029F108952BB381E090E002C01A
:10024000880F991F6A95E2F7809582238BBB0895EA
:1002500028B381E090E002C0880F991F6A95E2F709
:100260008095822388BB089525B381E090E002C089
:10027000880F991F6A95E2F78095822385BB0895C0
:1002800022B381E090E002C0880F991F6A95E2F7DF
:100290008095822382BB08950E9441000E945A00EB
:0602A000FFCFF894FFCF30
:00000001FF
